:020000040800F2
:10000000000B0020790200080B18000803180008F4
:10001000071800089D060008E32000080000000003
:10002000000000000000000000000000E5180008CB
:10003000A10600080000000045180008E7180008A5
:10004000930200089302000893020008930200083C
:10005000930200089302000893020008930200082C
:10006000930200089302000893020008930200081C
:10007000930200089302000893020008930200080C
:1000800093020008930200089302000893020008FC
:1000900093020008930200089302000893020008EC
:1000A00093020008930200089302000893020008DC
:1000B00093020008930200089302000893020008CC
:1000C00093020008930200089302000893020008BC
:1000D00093020008930200089302000893020008AC
:1000E000930200089302000893020008930200089C
:1000F000930200089302000893020008930200088C
:10010000930200089302000893020008930200087B
:10011000930200089302000893020008930200086B
:10012000930200089302000893020008930200085B
:10013000930200089302000893020008930200084B
:10014000930200089302000893020008930200083B
:10015000930200089302000893020008930200082B
:10016000930200089302000893020008930200081B
:100170009302000893020008000000000000000045
:10018000930200089302000800F002F800F064F8FF
:100190000AA090E8000C82448344AAF10107DA45E2
:1001A00001D100F059F8AFF2090EBAE80F0013F0D0
:1001B000010F18BFFB1A43F001031847EC2500009C
:1001C0000C2600000A444FF0000C10F8013B13F01D
:1001D000070408BF10F8014B1D1108BF10F8015BA0
:1001E000641E05D010F8016B641E01F8016BF9D193
:1001F00013F0080F1EBF10F8014BAD1C0C1B09D1EA
:100200006D1E58BF01F801CBFAD505E014F8016B5B
:1002100001F8016B6D1EF9D59142D6D370470000ED
:100220000023002400250026103A28BF78C1FBD8FF
:10023000520728BF30C148BF0B607047642900F0E7
:100240001D81632900F0BD81002070471FB502F0B9
:1002500081FA1FBD10B510BD00F0EEF91146FFF791
:10026000F5FF02F002F800F00CFA03B4FFF7F2FF1A
:1002700003BC01F038FF00000948804709480047E7
:10028000FEE7FEE7FEE7FEE7FEE7FEE7FEE7FEE746
:10029000FEE7FEE704480549054A064B70470000A3
:1002A000291A00088901000800050020000B002021
:1002B0000007002000070020704753EA020C00F0FE
:1002C00069802DE9F04B4FF00006002B1FBFB3FAF9
:1002D00083F503FA05F424FA05F65E4012BF1643CF
:1002E000B2FA82F502FA05F4C5F120051EBF22FA22
:1002F00005FC44EA0C04203556EA044C4FEA144449
:1003000018BF641C4FF000084FF00009904271EBD9
:10031000030C39D3002919BFB1FA81F701FA07F6A6
:10032000B0FA80F700FA07F6C7F120071EBF20FADF
:1003300007FC46EA0C062037B6FBF4FCA7EB0507E2
:10034000103F07F01F0BCBF120060CFA0BFB2CFA29
:1003500006F644BFB3460026202FA4BF5E464FF0EA
:10036000000B5BEA060C08BF4FF0010B19EB0B0901
:10037000ABFB027C48EB0608C01B06FB02CC0BFB68
:1003800003CC71EB0C01C1E70B46024641464846DF
:10039000BDE8F08B13B54FF000004FF00001AFF354
:1003A0000080BDE81C4070470FB4044910B503AA93
:1003B000029800F013F910BC5DF814FB080000204F
:1003C0002DE9F0410E460446002020622046E168F7
:1003D000884730B3252805D0D4E901219047206A09
:1003E000401CF2E7E168204600278847050018D046
:1003F000A5F14100192802D820354FF40067324694
:10040000294620462760FFF719FF40B1012804D094
:10041000F61D26F007060836D8E7361DD6E728462B
:10042000DAE7206ABDE8F08170B50C460546012A7E
:1004300005D02878800600D5EA69002302E0012370
:1004400005E05B1C934202D2E05C0028F9D1A86968
:10045000E618C01AA861286A184428622846AFF333
:10046000008004E0D5E9012114F8010B9047B44263
:10047000F8D32846AFF3008070BD00002DE9F041AD
:100480000646002410687529314616A510D0AFF332
:100490000080002802DA404213A507E031688A078D
:1004A00001D512A502E0490704D511A5012401E0F8
:1004B000AFF3008000210A2206F1240709E0B0FB17
:1004C000F2FCB0FBF2F302FB1C003030785418460B
:1004D000491C0028F3D123462A463046BDE8F041A6
:1004E00000F00CB8000000002D0000002B00000000
:1004F0002000000070477047704770472DE9F047B3
:100500000D4699469246044600F124080168880683
:1005100004D5E06921F01001216000E00120A8422B
:1005200001DD471B00E00027A1697A1902EB0900F1
:10053000081AA0612078C00602D42046AFF30080DC
:10054000002608E0D4E901211AF806009047206A45
:10055000401C761C20624E45F4DB2078C0060AD58C
:100560002046AFF3008006E0D4E901213020904717
:10057000206A401C2062381EA7F10107F4DC07E066
:10058000D4E9012118F805009047206A401C206238
:10059000281EA5F10105F3DC2046AFF3008020788A
:1005A000000602D50220BDE8F0870120FBE710B568
:1005B000436913B1AFF3008001E0FFF735FF01207D
:1005C00010BD127800F124010A7000224A70012245
:1005D000EDE711684FF0FF32E9E70000074B70B517
:1005E0000D467B4400F011F80446284600F020F840
:1005F00010B14FF0FF3070BD204670BD571C000099
:1006000001694A1C02610878704700B58FB0CDE9D6
:1006100001310021059105497944CDE903101146C6
:100620006846FFF7CDFE0FB000BD0000E5FFFFFFFD
:10063000007B00F080007047754600F02BF8AE4656
:1006400005006946534620F00700854618B020B5DE
:10065000FFF720FEBDE820404FF000064FF00007F6
:100660004FF000084FF0000B21F00701AC46ACE85A
:10067000C009ACE8C009ACE8C009ACE8C0098D46C7
:10068000704710B50446AFF300802046BDE8104027
:10069000FFF7EBBD00487047A004002000BFFEE755
:1006A00070470000F0B50B46002187E001258D4022
:1006B00005EA0302002A7DD005684F000326BE40EC
:1006C00035430560CE0800F1200555F826504E0749
:1006D000F70E0F26BE40B543CF0800F1200646F8BE
:1006E000275085684F000326BE40B54385604668A5
:1006F00001258D40AE434660C5684F000326BE40CD
:10070000B543C560C66A01258D40AE43C6622E4D15
:100710008E0855F826408D072E0F0F25B5402C402A
:10072000B0F1904F01D100251EE0284DA84201D123
:10073000012519E0264DA84201D1022514E0254DDE
:10074000A84201D103250FE0234DA84201D1042581
:100750000AE0224DA84201D1052505E0204DA8421E
:1007600001D1062500E007258E07360FB540A542CA
:1007700023D18D072E0F0F2505FA06F4124D8E0892
:1007800055F82650A543104E8F0846F82750154DB2
:100790002D689543134E3560351D2D689543361DE4
:1007A0003560351D2D689543361D3560351D2D6826
:1007B000954300E001E0361D3560491C23FA01F540
:1007C000002D7FF473AFF0BD080001400004004825
:1007D00000080048000C00480010004800140048C1
:1007E000001800480004014078B503460022E5E007
:1007F000012696400D6805EA0604002C7DD04D6860
:10080000022D02D04D68122D13D1D60803F1200518
:1008100055F826005507EE0E0F25B540A84356079C
:10082000F60E0D69B5402843D60803F1200545F8BA
:100830002600186856000325B540A8430D7905F039
:1008400003055600B540284318604D68012D08D0B7
:100850004D68022D05D04D68112D02D04D68122D26
:1008600013D1986856000325B540A8435600CD68BB
:10087000B54028439860586801259540A8430D79F4
:10088000C5F300159540284358600D7905F0030520
:10089000032D09D1D86A01259540A8430D79C5F3E8
:1008A000C00595402843D862D86856000325B54056
:1008B000A84356008D68B5402843D8604D6805F0C0
:1008C0008055B5F1805F78D100BF3F4D2D6E45F06A
:1008D00001053D4E356635462D6E05F00105009546
:1008E00000BF00BF4FEAB635960855F826009507B9
:1008F0002E0F0F25B540A84300E05EE0B3F1904F06
:1009000001D100251EE0314DAB4201D1012519E096
:100910002F4DAB4201D1022514E02E4DAB4201D147
:1009200003250FE02C4DAB4201D104250AE02B4DED
:10093000AB4201D1052505E0294DAB4201D1062589
:1009400000E007259607360FB5402843254D960849
:1009500045F82600244D2868A0434D6805F48035ED
:10096000B5F5803F00D120431F4D28602D1D28681C
:10097000A0434D6805F40035B5F5003F00D1204394
:10098000194D2D1D28602D1D2868A0434D6805F4C4
:100990008015B5F5801F00D12043134D0835286020
:1009A0002D1D2868A0434D6805F40015B5F5001FFE
:1009B00000D120430C4D0C352860521C0D68D540E9
:1009C000002D7FF415AF78BD0010024000040048F0
:1009D00000080048000C00480010004800140048BF
:1009E00000180048080001400004014042694A40E4
:1009F000426170470AB1816100E081627047000086
:100A00000148006870470000140000200248006898
:100A1000401C0149086070471400002010B50024F4
:100A2000032000F065F80F2000F008F808B1012459
:100A300001E000F01BF8204610BD000070B5044630
:100A40000025094800684FF47A71B0FBF1F6304692
:100A500000F0F8FC08B1012504E000222146501EF8
:100A600000F005F8284670BD0000002070472DE911
:100A7000F05F80460D461646002700F0C7FE074689
:100A800039462A46334601F00700C0F1070ABAF199
:100A9000040F02D94FF0040A01E0C0F1070AD14661
:100AA00000F1040ABAF1070F02D24FF0000A01E088
:100AB000A0F1030AD4464FF0010A0AFA09FAAAF192
:100AC000010A0AEA020A0AFA0CFA4FF0010B0BFAC1
:100AD0000CFBABF1010B0BEA030B4AEA0B042146BA
:100AE000404600F09BFE00F000B830BCBDE8C09F5F
:100AF00000BF00F00702064B19684FF6FF031940CC
:100B0000044B0B4343EA0221014B196000BF7047BD
:100B10000CED00E00000FA050248006800F4C06037
:100B200070470000007000402DE9F04104460D467A
:100B300014B90120BDE8F0815548006800F00700B5
:100B4000A8420ED25248006820F0070028435049BE
:100B500008600846006800F00700A84201D00120A4
:100B6000E8E7207800F00100002840D06068032802
:100B700006D14848006800F00070D8B90120D9E7D4
:100B80006068022806D14348006800F4003088B944
:100B90000120CFE7606830B93E48006800F00200ED
:100BA00040B90120C6E73B48006800F4806008B9FE
:100BB0000120BFE73748806820F0030061680843E0
:100BC00034498860FFF71CFF064608E0FFF718FF6E
:100BD000801B41F28831884201D90320AAE72D48C1
:100BE000806800F00C006168B0EB810FEED12078D6
:100BF00000F00200022807D12648806820F0F000AB
:100C0000A1680843234988602148006800F0070074
:100C1000A8420ED91E48006820F0070028431C494E
:100C200008600846006800F00700A84201D00120D3
:100C300080E7207800F00400042807D11548806878
:100C400020F4E060E168084312498860207800F0F1
:100C50000800082808D10F48806820F460502169F6
:100C600040EAC1000B49886000F044F809498968EE
:100C7000C1F30311084A515C01F01F01C840074944
:100C800008600F20FFF7DAFE0746384652E70000FB
:100C900000200240001002406027000800000020F1
:100CA00001480068704700000000002000B5FFF711
:100CB000F7FF05498968C1F30221044A515C01F03C
:100CC0001F01C84000BD000000100240702700084E
:100CD00000B5FFF7E5FF05498968C1F3C221044A61
:100CE000515C01F01F01C84000BD0000001002402F
:100CF000702700082DE9F04100240020DFF800C132
:100D0000DCF808C00CF00C01DFF8F4C0DCF80CC013
:100D10000CF0030719B10C291ED1012F1CD1DFF8EB
:100D2000E0C0DCF800C00CF0080CBCF1000F06D1EC
:100D3000DFF8CCC0DCF894C0CCF3032405E0DFF886
:100D4000C0C0DCF800C0CCF30314DFF8B8C05CF816
:100D5000244041B9204606E0042901D12A4802E096
:100D6000082900D129480C2947D1DFF894C0DCF8C4
:100D70000CC00CF00305DFF888C0DCF80CC0CCF325
:100D8000021C0CF10103012D1FD0022D02D0032DF6
:100D90001AD10CE0DFF870C0BCFBF3FCDFF8608018
:100DA000D8F80C80C8F306280CFB08F218E0DFF82E
:100DB0005CC0BCFBF3FCDFF84880D8F80C80C8F3BB
:100DC00006280CFB08F20BE000BFB4FBF3FCDFF8D5
:100DD0003080D8F80C80C8F306280CFB08F200BF5E
:100DE00000BFDFF81CC0DCF80CC0CCF3416C0CF188
:100DF000010C4FEA4C06B2FBF6F0BDE8F0810000B2
:100E000000100240782700080024F40000127A0045
:100E10002DE9F843044614B90120BDE8F883F848E9
:100E2000806800F00C06F648C06800F003072078E0
:100E300000F01000102875D11EB10C2E74D1012FB6
:100E400072D1EF48006800F0020018B1A06908B93B
:100E50000120E2E7EA48216A006800F0080020B1BA
:100E6000E748006800F0F00005E0E54894300068CD
:100E700000F47060000981421FD9206A00F0E4FC90
:100E800008B10120C9E700BFDD48006840F0080054
:100E9000DB4908600846006820F0F000216A08433A
:100EA000D749086000BF0846406820F47F40E169E8
:100EB00040EA0120D24948601EE000BFD0480068E7
:100EC00040F00800CE4908600846006820F0F000B5
:100ED000216A0843CA49086000BF0846406820F4F8
:100EE0007F40E16940EA0120C5494860206A00F07E
:100EF000ABFC08B1012090E7FFF7FCFEC049896810
:100F0000C1F30311BF4A515C01F01F01C840BE4943
:100F100008600F20FFF792FD8046B8F1000F4ED019
:100F200040467AE74BE0FFE7A06980B3B448006829
:100F300040F00100B2490860FFF762FD054606E097
:100F4000FFF75EFD401B022801D9032065E7AC488E
:100F5000006800F002000028F2D000BFA848006836
:100F600040F00800A64908600846006820F0F0003C
:100F7000216A0843A249086000BF0846406820F47F
:100F80007F40E16940EA01209D49486017E0FFE7A2
:100F90009B48006820F0010099490860FFF730FD88
:100FA000054606E0FFF72CFD401B022801D903206F
:100FB00033E79348006800F002000028F2D120785F
:100FC00000F0010000285CD0082E03D00C2E0AD1BE
:100FD000032F08D18A48006800F4003088B36068A5
:100FE00078BB012019E700BF6068B0F5803F06D1EB
:100FF0008348006840F48030814908601AE06068E6
:10100000B0F5A02F0BD17E48006840F480207C49C9
:1010100008600846006840F4803008600AE07848BC
:10102000006820F48030764908600846006820F4A3
:101030008020086000BF606890B1FFF7E1FC0546C2
:1010400007E01EE0FFF7DCFC401B642801D9032009
:10105000E3E66B48006800F400300028F2D010E0AE
:10106000FFF7CEFC054606E0FFF7CAFC401B6428EC
:1010700001D90320D1E66248006800F4003000285E
:10108000F2D1207800F00200022852D1042E03D0C1
:101090000C2E14D1022F12D15948006800F4806040
:1010A00018B1E06808B90120B7E65548406820F05B
:1010B000F850217C40EA01605149486039E0E0681D
:1010C00000B34F48006840F480704D490860FFF756
:1010D00097FC054606E0FFF793FC401B022801D968
:1010E00003209AE64648006800F480600028F2D0A9
:1010F0004348406820F0F850217C40EA01604049B4
:10110000486016E03E48006820F480703C49086062
:10111000FFF776FC054606E0FFF772FC401B02284D
:1011200001D9032079E63648006800F48060002881
:10113000F2D1207800F00800082836D16069D0B1DB
:101140002F489430006840F001002D49C1F8940008
:10115000FFF756FC054606E0FFF752FC401B02284D
:1011600001D9032059E626489430006800F00200B7
:101170000028F1D019E022489430006820F00100E6
:101180001F49C1F89400FFF73BFC054606E0FFF756
:1011900037FC401B022801D903203EE61848943052
:1011A000006800F002000028F1D1207800F004006F
:1011B000042870D14FF000091148806D00F0805074
:1011C00078B900BF0E48806D40F080500C498865AA
:1011D0000846806D00F08050009000BF00BF4FF0C7
:1011E00001090A48006800F48070F0B907480068F7
:1011F00040F4807005490860FFF702FC05460EE0E8
:10120000001002406027000800000020007000402D
:10121000FFF7F6FB401B022801D90320FDE57C48BF
:10122000006800F480700028F2D000BFA068012898
:1012300008D17848006840F0010076499039C1F83B
:10124000900021E0A06805280FD17248006840F0A6
:10125000040070499039C1F890000846D0F8900019
:1012600040F00100C1F890000EE06A48006820F0EC
:10127000010068499039C1F890000846D0F8900004
:1012800020F00400C1F8900000BFA068A0B1FFF7F3
:10129000B7FB054609E02EE0FFF7B2FB401B41F229
:1012A0008831884201D90320B7E55A48006800F028
:1012B00002000028F0D012E0FFF7A2FB054608E08C
:1012C000FFF79EFB401B41F28831884201D9032081
:1012D000A3E55048006800F002000028F0D1B9F101
:1012E000010F07D14B489038806D20F0805049495C
:1012F0009039886500BFA06AF0B30C2E74D0A06A44
:10130000022853D143489038006820F0807041494A
:1013100090390860FFF774FB054606E0FFF770FBA5
:10132000401B022801D9032077E53A48903800682D
:1013300000F000700028F1D1206B401E0101606BAD
:1013400041EA0021A06B000941EA4040E16A0843FC
:10135000A18F0122C2EB510140EA41514020005DC2
:10136000C2EB500041EA40602A499039C860084603
:10137000006840F0807000E048E008600846C068FF
:1013800040F08070C860FFF73BFB054606E0FFF7C2
:1013900037FB401B022801D903203EE51D48903849
:1013A000006800F000700028F1D02FE01948903854
:1013B000006820F08070174990390860084600687E
:1013C00000F0205020B90846C06820F00300C86033
:1013D00010489038C068104908400E499039C860DC
:1013E000FFF70EFB054607E00EE0FFF709FB401B89
:1013F000022801D9032010E506489038006800F063
:1014000000700028F1D101E0012006E5002004E58C
:101410000070004090100240FFFFEEFE042808D14B
:101420004FF0E021096941F004014FF0E022116121
:1014300007E04FF0E021096921F004014FF0E022BC
:101440001161704770B504462546681EB0F1807F73
:1014500001D301200FE0681E4FF0E02148610F2109
:101460004FF0FF3000F0DAF900204FF0E021886102
:1014700007200861002070BD10B504460CB901209A
:1014800010BDA06900B100E000BF94F8710028B958
:10149000002084F87000204600F02AF8242084F808
:1014A00071002068006820F0010021680860204673
:1014B00000F098FB012800D1E2E7606A10B12046F5
:1014C00000F0DAFA2068406820F490402168486013
:1014D0002068806820F02A00216888602068006801
:1014E00040F0010021680860204600F041FBC7E79A
:1014F00030B587B0054645492868884214D1444C28
:10150000206890F8340008B907B030BD00BF4148EA
:10151000006E40F480403F4908660846006E00F4C3
:101520008040019000BF31E03B492868884214D1D7
:10153000374C9834206890F8340000B9E4E700BFD5
:101540003448806D40F40030324988650846806D2B
:1015500000F40030019000BF18E03049286888424C
:1015600013D12F4C206890F8340000B9CCE700BFAD
:101570002848806D40F48020264988650846806DA3
:1015800000F48020019000BF00E0BDE72068007CEF
:1015900080B12068806802902068C06806900220B0
:1015A000039001200490022005902168486802A958
:1015B000FFF71AF9206890F8200080B12068806950
:1015C00002902068C06906900220039001200490D8
:1015D000022005902168486802A9FFF705F92068F4
:1015E00090F8300080B12068806A02902068C06A5C
:1015F00006900220039001200490022005902168AB
:10160000486802A9FFF7F0F800BF7DE70038014005
:10161000B00000200010024000440040004800409C
:10162000E00100202DE9F84F04460D461646994684
:101630004FF0000A94F87200202879D105B116B94C
:10164000012000F077B800BF94F87000012801D1A4
:101650000220F6E7012084F8700000BF0020583413
:10166000E0612220A076FFF7CBF9824626806680D3
:10167000583C00BFA068B0F5805F0AD1206920B94E
:1016800040F2FF10A4F85C001CE0FF20A4F85C000E
:1016900018E0A06848B9206918B9FF20A4F85C00D8
:1016A00010E07F20A4F85C000CE0A068B0F1805F3F
:1016B00008D1206918B97F20A4F85C0002E03F201F
:1016C000A4F85C0000BFB4F85C7023E0534600222D
:1016D00020212046CDF8009000F0CDFC08B1032079
:1016E000AFE7A068B0F5805F09D1206938B9A84696
:1016F0002068808C3840A8F80000AD1C05E0206808
:10170000808CF9B2084005F8010BB4F85A00401E6D
:10171000A4F85A00B4F85A000028D7D1202084F841
:10172000720000BF002084F8700000BF89E7FFE767
:10173000022086E718BCBDE8E08F2DE9F843044697
:101740000D4616461F464FF0000994F871002028F8
:1017500055D105B116B90120BDE8F88300BF94F852
:101760007000012801D10220F6E7012084F8700002
:1017700000BF00206067212084F87100FFF740F966
:101780008146A4F85060A4F8526021E04B46002244
:1017900080212046009700F06EFC08B10320DBE7B3
:1017A000A068B0F5805F0AD1206940B9A846B8F8B2
:1017B0000000C0F3080021680885AD1C03E015F89F
:1017C000010B21680885B4F85200401EA4F85200AD
:1017D000B4F852000028D9D14B46002240212046BF
:1017E000009700F048FC08B10320B5E7202084F8FA
:1017F000710000BF002084F8700000BFACE7022039
:10180000AAE700BFFEE700BFFEE770470248006896
:10181000C0F30220704700000CED00E010B5002876
:1018200007DA0A07140E054A00F00F031B1FD454F1
:1018300003E00A07130E024A135410BD18ED00E02E
:1018400000E400E070470000F8B504460026234895
:10185000806D00F0805018B1FFF75EF9054616E084
:1018600000BF1E48806D40F080501C4988650846C6
:10187000806D00F08050009000BF00BFFFF74CF972
:1018800005461648806D20F0805014498865B5F5EE
:10189000007F07D1802C10D9A02C01D902260CE0A2
:1018A00001260AE0802C01D9032606E0802C01D114
:1018B000022602E0702C00D101260948006820F0C1
:1018C00007003043064908600846006800F007003A
:1018D000B04201D00120F8BD0020FCE7001002401A
:1018E00000200240704710B5FFF790F810BD0000CF
:1018F00008B500BF3448C06C40F001003249C864EC
:101900000846C06C00F00100009000BF00BF00BF9F
:101910000846C06C40F00200C8640846C06C00F085
:101920000200009000BF00BF00BF0846C06C40F03E
:101930000400C8640846C06C00F00400009000BFBA
:1019400000BF00BF0846C06C40F00800C8640846ED
:10195000C06C00F00800009000BF00BF00BF084648
:10196000C06C40F01000C8640846C06C00F0100065
:10197000009000BF00BF00BF0846C06C40F02000D0
:10198000C8640846C06C00F02000009000BF00BF93
:1019900000BF0846C06C40F04000C8640846C06CF8
:1019A00000F04000009000BF00BF00BF0846C06CC0
:1019B00040F08000C8640846C06C00F080000090D1
:1019C00000BF00BF08BD00000010024000B597B086
:1019D00010200190012007906020099000200890BD
:1019E00002200B9001210C910D9128210E910221D2
:1019F000119107210F910421109101A8FFF708FA16
:101A000008B100BFFEE70F201290032013900020C2
:101A1000149015901690042112A8FFF785F808B1CC
:101A200000BFFEE717B000BD1048006840F470002A
:101A30000E4908600E48006840F001000C4908603B
:101A400000208860084600680A4908400849086084
:101A50008814C8600846006820F4802008600020D0
:101A60008861C803014980390860704788ED00E04B
:101A700000100240FFFFF6EA90F8241001F0010187
:101A800039B10168496821F40031826A1143026862
:101A9000516090F8241001F00201022907D1016879
:101AA000496821F48031C26A11430268516090F89C
:101AB000241001F00401042907D10168496821F4C8
:101AC0008021026B11430268516090F8241001F0EC
:101AD0000801082907D10168496821F40041426BD7
:101AE00011430268516090F8241001F01001102990
:101AF00007D10168896821F48051826B1143026823
:101B0000916090F8241001F02001202907D101688C
:101B1000896821F40051C26B11430268916090F80A
:101B2000241001F04001402913D10168496821F4D3
:101B30008011026C114302685160016CB1F5801F85
:101B400007D10168496821F4C001426C1143026861
:101B5000516090F8241001F08001802907D10168BC
:101B6000496821F40021826C11430268516070477A
:101B700038B50446002500206067FEF741FF0546A2
:101B80002068006800F0080008280CD16FF07E4043
:101B90002B4600224FF400110090204600F06BFA13
:101BA00008B1032038BD2068006800F00400042854
:101BB0000CD16FF07E402B4600224FF48001009044
:101BC000204600F058FA08B10320EBE7202084F803
:101BD000710084F8720000BF002084F8700000BF1C
:101BE00000BFDFE72DE9F84F04464FF0000910264B
:101BF0004FF0000B0025002000908246F749206836
:101C0000884200D100E000BF2169A06808436169F3
:101C10000843E16940EA010920680068F04908408A
:101C200040EA0900216808602068406820F44050BC
:101C3000E168084321684860D4F81890E7492068B3
:101C4000884202D0206A40EA09092068806820F4AE
:101C5000306040EA09002168886000BFE1492068DF
:101C6000884216D1E048006800F0030030B1012836
:101C700008D0022804D0032808D105E0012607E097
:101C8000022605E0042603E0082601E0102600BF36
:101C90008CE0D6492068884216D1D348006800F00D
:101CA0000C0030B1042808D0082804D00C2808D132
:101CB00005E0002607E0022605E0042603E00826EA
:101CC00001E0102600BF71E0C9492068884216D1A2
:101CD000C548006800F0300030B1102808D0202836
:101CE00004D0302808D105E0002607E0022605E0F0
:101CF000042603E0082601E0102600BF56E0BD4997
:101D00002068884216D1B848006800F0C00030B1A1
:101D1000402808D0802804D0C02808D105E000263B
:101D200007E0022605E0042603E0082601E010266D
:101D300000BF3BE0B0492068884219D1AA4800683A
:101D400000F4407048B1B0F5807F0AD0B0F5007F54
:101D500005D0B0F5407F08D105E0002607E0022657
:101D600005E0042603E0082601E0102600BF1DE080
:101D70009A492068884219D19B48006800F4406065
:101D800048B1B0F5806F0AD0B0F5006F05D0B0F55E
:101D9000406F08D105E0002607E0022605E0042692
:101DA00003E0082601E0102600BF00BF00BF8B49FA
:101DB0002068884272D1042E10D003DC3EB1022E7E
:101DC00013D108E0082E0DD0102E0ED10EE0FEF734
:101DD0006DFF82460DE0DFF824A20AE0FEF78AFFDD
:101DE000824606E04FF4004A03E000BF0120009065
:101DF00000BF00BFBAF1000F0AD0606800EB4000DE
:101E0000504503D860680003504502D2012000907D
:101E100025E1042E2ED003DC3EB1022E51D118E074
:101E2000082E3CD0102E4CD14CE0FEF73FFF4FF473
:101E30008071A0FB0131606840081F1841F100016A
:101E4000D4F804C0624600233846FEF736FA054649
:101E50003BE0D4F804C04FEA5C000021684BC7188F
:101E600041EB010862460B4638464146FEF725FA2B
:101E700005462AE0FEF73EFF4FF48071A0FB0130DB
:101E8000616849085F1840F10001D4F804C0624657
:101E900000233846FEF711FA054616E022E0D4F892
:101EA00004C04FEA5C0000214FF40003C71841EB67
:101EB000010862460B4638464146FEF7FEF90546E4
:101EC00003E000BF0120009000BF00BFB5F5407FD8
:101ED00005D3B5F5801F02D22068C560BFE00120A0
:101EE0000090BCE0E069B0F5004F57D1042E28D037
:101EF00005DC4EB1012E11D0022E36D118E0082E8D
:101F000029D0102E31D131E0FEF7D0FE40006168BB
:101F100000EB5100B0FBF1F085B22AE0FEF7D8FEED
:101F20004000616800EB5100B0FBF1F085B220E0A9
:101F30003449606801EB50006168B0FBF1F085B294
:101F400017E0FEF7D7FE4000616800EB5100B0FBE0
:101F5000F1F085B20DE04FF48031606801EB500084
:101F60006168B0FBF1F085B203E000BF0120009092
:101F700000BF00BF102D0ED3B5F5803F0BD24FF63A
:101F8000F07005EA000BC5F342004BEA000B206835
:101F9000C0F80CB063E00120009060E0042E3CD05B
:101FA00005DC4EB1012E10D0022E49D12CE0082EB6
:101FB0003CD0102E44D144E0FEF778FE616800EB7F
:101FC0005100B0FBF1F085B23EE0FEF781FE6168A2
:101FD00000EB5100B0FBF1F085B235E0008000402D
:101FE000F369FFEF003801408810024000440040D0
:101FF00000480040004C0040005000400024F40025
:10200000000024F40048E8011849606801EB500022
:102010006168B0FBF1F085B216E0FEF76BFE616817
:1020200000EB5100B0FBF1F085B20DE04FF4004140
:10203000606801EB50006168B0FBF1F085B203E02D
:1020400000BF0120009000BF00BF102D05D3B5F5E3
:10205000803F02D22068C56001E00120009000208E
:1020600020666066009800F003B800000024F400C9
:1020700018BCBDE8E08F2DE9F04104460D46174637
:102080009846069E21E0701CF8B12EB1FEF7B8FC10
:10209000A0EB0800B04218D92068006820F4D07086
:1020A000216808602068806820F00100216888604D
:1020B000202084F8710084F8720000BF002084F8AA
:1020C000700000BF0320BDE8F0812068C06928408F
:1020D000A84201D1012000E00020B842D3D0002066
:1020E000F1E700BFFEE700BF704710B500F006F84B
:1020F0004FF4E13000F046F810BD000010B50322A7
:102100001149002000F012F9002000F0F5F80F4806
:1021100001460268012000F009F9012000F0ECF806
:102120000B4801460268022000F000F9022000F08E
:10213000E3F8084801460268032000F0F7F803209E
:1021400000F0DAF810BD000038030020D4030020AE
:102150000C0400204404002010B504460CB90020F3
:1021600010BD0748007908B90020F9E7044908685C
:10217000096801228B69214698470120F0E7000099
:102180000C00002001B5012000F0A8F80E490860FD
:1021900008680968CA68694690470CA0FEF704F908
:1021A0000BA0FEF701F9084800680068016810A05C
:1021B000FEF7FAF815A00099FEF7F6F8012002499B
:1021C0000871002008BD00000C0000200D0A00006E
:1021D000436F6E736F6C6520696E697420737563ED
:1021E0006365737366756C6C792121210D0A00009B
:1021F000436F6E736F6C65206472697665723A2006
:10220000756172742D2564200D0A0000436F6E7392
:102210006F6C65206261756420726174653A202577
:1022200064200D0A0000000010B504460420FFF7EA
:10223000F5F80148046010BD0400002000BF054A05
:10224000126802F04002002AF9D0C2B2014B0C33EE
:102250001A8070471C38014010B504460CB90020A4
:1022600010BD2046FFF778FFFAE7FEF7D7FBFFF730
:10227000ADFBFFF73DFBFFF738FF5020FFF7D4FF22
:1022800001E000F001F8FCE708B5002000F026F8B6
:102290000446002120462269904718E06846FFF76F
:1022A000DBFF9DF800000D2808D19DF8001008A064
:1022B000FEF77AF807A0FEF777F804E09DF8001023
:1022C00003A0FEF771F801212046E2699047E5E797
:1022D000256300000A7379733E000000014604295B
:1022E00001DB0020704701EB4100024A02EB0010C5
:1022F000806AF7E77802002070B50546042D01DBFF
:10230000002070BD05EB4500074901EB0014606A31
:1023100008B90020F5E7E06A20B12046E26A216AA8
:102320009047EEE70020ECE77802002030B5034646
:102330000C46042B02DB4FF0FF3030BD03EB4300B3
:10234000034D05EB00114C620A620020F5E7000026
:10235000780200202DE9F04106463546EF6897F8EF
:10236000200010B90020BDE8F081002087F820008F
:1023700000241EE004EB840101EBC401286800EB9B
:10238000810090F8300000B912E004EB840303EB05
:10239000C4032A6802EB8302D16A04EB840303EBD3
:1023A000C4032A6802EB8302906AFEF77BF900BF40
:1023B000641C6868A042DDD80020D4E72DE9F04114
:1023C00086B0064688463546EF6897F8200018B173
:1023D000002006B0BDE8F081012087F8200000242D
:1023E00057E004EB840101EBC401286800EB810095
:1023F00090F8300000B94BE004EB840101EBC4011C
:10240000286800EB8100C06A0190012002900390CF
:102410000220049004EB840202EBC402296801EB61
:102420008201886A01A9FEF7DFF904EB840101EB60
:10243000C401286800EB8100406AA0B104EB84036A
:1024400003EBC4032A6802EB8302928D91B204EB82
:10245000840303EBC4032A6802EB8302906A01221F
:10246000FEF7C8FA13E004EB840303EBC4032A6805
:1024700002EB8302928D91B204EB840303EBC4035D
:102480002A6802EB8302906A0022FEF7B3FA00BFCB
:10249000641C6868A042A4D800209AE710B50246E0
:1024A000134608485C6A046041600446C460064CF8
:1024B0000461064C4461064C8461064CC461986218
:1024C00010BD00007C040020BD2300085523000837
:1024D000D92400089B2500082DE9F04706460F4641
:1024E00090463546D5F80C9099F8200018B94FF071
:1024F000FF30BDE8F087002443E004EB840101EBEA
:10250000C401286800EB8100006AB84237D104EBAF
:10251000840101EBC401286800EB810090F83000D1
:1025200000B92DE0B8F1000F14D004EB840303EBE5
:10253000C4032A6802EB8302928D91B204EB8403F8
:1025400003EBC4032A6802EB8302906A0122FEF7C0
:1025500051FA13E004EB840303EBC4032A6802EB93
:102560008302928D91B204EB840303EBC4032A68C7
:1025700002EB8302906A0022FEF73CFA04E000BFFF
:10258000641C6868A042B8D800BF6868A04202D145
:102590004FF0FF30ADE70020ABE72DE9F0410646F4
:1025A0000F463546D5F80C8098F8200018B94FF042
:1025B000FF30BDE8F08100242AE004EB840101EB48
:1025C000C401286800EB8100006AB8421ED104EB08
:1025D000840101EBC401286800EB810090F8300011
:1025E00000B914E004EB840303EBC4032A6802EB94
:1025F0008302928D91B204EB840303EBC4032A6837
:1026000002EB8302906AFEF7F1F904E000BF641C5C
:102610006868A042D1D800BF6868A04202D14FF0DC
:10262000FF30C6E70020C4E7014611B14FF0FF308C
:1026300070470020FCE701464FF0FF3070472DE95E
:10264000F04105460E462F46D6F80080386890F8CF
:10265000340018B94FF0FF30BDE8F081BC6894F841
:10266000960010B14FF0FF30F6E7012084F8960095
:10267000C4F8208000216162A162E16261630C21E3
:10268000216304F11C00FEF7F7FE0020E4E70000E0
:1026900070B50246134601EB410505EB01150C4EE2
:1026A00006EBC50001EB410505EB011506EBC50482
:1026B0005D6A0560002545608460064DC560064D75
:1026C0000561064D4561064D8561986270BD00004B
:1026D000180000203F260008372600081D270008A4
:1026E000E52600082DE9F04704460E461746A046A9
:1026F000D8F8085095F8960018B94FF0FF30BDE8AB
:10270000F0874FF0FF333A46314605F11C00FEF7E3
:1027100089FF81464846FFF787FFF0E72DE9F0473C
:1027200004460E461746A046D8F8085095F896007D
:1027300018B94FF0FF30BDE8F0874FF0FF333A464D
:10274000314605F11C00FEF7F8FF81464846FFF7C9
:102750006BFFF0E74FF04070E1EE100A70470000A9
:102760000000000000000000010203040607080941
:102770000000000001020304A0860100400D0300D8
:10278000801A060000350C0040420F0080841E00B5
:1027900000093D0000127A000024F40000366E01AA
:1027A0000048E801006CDC02C82700080000002097
:1027B0007C040000C4010008482800087C040020B4
:1027C00084060000200200081103CA093D04743881
:1027D0000140031F250112440973980A1E26980A16
:1027E0007448981A279805286C656473139D240013
:1027F0000826087573617274315B9126300A2D3298
:10280000300A283330042172656419E72112105B05
:1028100048800C0E1D677265656E30693429092980
:102820000C051C626C7565AA0234190D79442139B6
:1028300044A2073920291079208A04102904294C40
:0828400001340237030000001F
:040000050800018965
:00000001FF
